{
  "contractName": "Actions",
  "abi": [
    {
      "constant": true,
      "inputs": [
        {
          "internalType": "string",
          "name": "",
          "type": "string"
        }
      ],
      "name": "ativos",
      "outputs": [
        {
          "internalType": "uint256",
          "name": "valor",
          "type": "uint256"
        },
        {
          "internalType": "address",
          "name": "dono",
          "type": "address"
        },
        {
          "internalType": "bool",
          "name": "vendivel",
          "type": "bool"
        }
      ],
      "payable": false,
      "stateMutability": "view",
      "type": "function"
    },
    {
      "constant": false,
      "inputs": [
        {
          "internalType": "uint256",
          "name": "_valor",
          "type": "uint256"
        },
        {
          "internalType": "bool",
          "name": "_vendivel",
          "type": "bool"
        },
        {
          "internalType": "string",
          "name": "_nomeAtivo",
          "type": "string"
        }
      ],
      "name": "setAtivos",
      "outputs": [],
      "payable": false,
      "stateMutability": "nonpayable",
      "type": "function"
    },
    {
      "constant": true,
      "inputs": [],
      "name": "getAtivos",
      "outputs": [
        {
          "internalType": "string[]",
          "name": "nomesAtivo",
          "type": "string[]"
        }
      ],
      "payable": false,
      "stateMutability": "view",
      "type": "function"
    },
    {
      "constant": false,
      "inputs": [
        {
          "internalType": "string",
          "name": "_nomeAtivo",
          "type": "string"
        }
      ],
      "name": "comprar",
      "outputs": [],
      "payable": true,
      "stateMutability": "payable",
      "type": "function"
    }
  ],
  "bytecode": "0x608060405234801561001057600080fd5b506108c2806100206000396000f3fe60806040526004361061003f5760003560e01c80632cc5def6146100445780633376737f1461006f578063c22d353c14610084578063f7a1068f146100a4575b600080fd5b34801561005057600080fd5b506100596100d3565b604051610066919061073d565b60405180910390f35b61008261007d3660046104d6565b6101ac565b005b34801561009057600080fd5b5061008261009f366004610513565b6102ac565b3480156100b057600080fd5b506100c46100bf3660046104d6565b610395565b6040516100669392919061076e565b60606001805480602002602001604051908101604052809291908181526020016000905b828210156101a25760008481526020908190208301805460408051601f600260001961010060018716150201909416939093049283018590048502810185019091528181529283018282801561018e5780601f106101635761010080835404028352916020019161018e565b820191906000526020600020905b81548152906001019060200180831161017157829003601f168201915b5050505050815260200190600101906100f7565b5050505090505b90565b6000816040516101bc9190610731565b90815260405190819003602001902060019081015460ff600160a01b909104161515146102045760405162461bcd60e51b81526004016101fb9061075e565b60405180910390fd5b6000816040516102149190610731565b908152604051908190036020019020543410156102435760405162461bcd60e51b81526004016101fb9061074e565b346000826040516102549190610731565b908152604051908190036020018120919091553390600090610277908490610731565b90815260405190819003602001902060010180546001600160a01b03929092166001600160a01b031990921691909117905550565b6001805480820180835560009290925282516102ef917fb10e2d527612073b26eecdfd717e6a320cf44b4afac2b0732d9fcbe2b7fa0cf6019060208501906103ce565b5050826000826040516103029190610731565b908152604051908190036020018120919091558290600090610325908490610731565b908152602001604051809103902060010160146101000a81548160ff0219169083151502179055503360008260405161035e9190610731565b90815260405190819003602001902060010180546001600160a01b03929092166001600160a01b0319909216919091179055505050565b8051602081830181018051600082529282019190930120915280546001909101546001600160a01b03811690600160a01b900460ff1683565b828054600181600116156101000203166002900490600052602060002090601f016020900481019282601f1061040f57805160ff191683800117855561043c565b8280016001018555821561043c579182015b8281111561043c578251825591602001919060010190610421565b5061044892915061044c565b5090565b6101a991905b808211156104485760008155600101610452565b80356104718161085f565b92915050565b600082601f83011261048857600080fd5b813561049b610496826107bd565b610796565b915080825260208301602083018583830111156104b757600080fd5b6104c2838284610819565b50505092915050565b803561047181610876565b6000602082840312156104e857600080fd5b813567ffffffffffffffff8111156104ff57600080fd5b61050b84828501610477565b949350505050565b60008060006060848603121561052857600080fd5b600061053486866104cb565b935050602061054586828701610466565b925050604084013567ffffffffffffffff81111561056257600080fd5b61056e86828701610477565b9150509250925092565b60006105848383610640565b9392505050565b610594816107fd565b82525050565b60006105a5826107eb565b6105af81856107ef565b9350836020820285016105c1856107e5565b8060005b858110156105fb57848403895281516105de8582610578565b94506105e9836107e5565b60209a909a01999250506001016105c5565b5091979650505050505050565b61059481610808565b600061061c826107eb565b61062681856107f8565b9350610636818560208601610825565b9290920192915050565b600061064b826107eb565b61065581856107ef565b9350610665818560208601610825565b61066e81610855565b9093019392505050565b6000610685602f836107ef565b7f4f2076616c6f72207072656369736120736572206d61696f7220717565206f2081526e383932b1b79032379030ba34bb379760891b602082015260400192915050565b60006106d66037836107ef565b7f4f20617469766f206e616f20706f6465207365722076656e6469646f206f752081527f6e616f20706f73737565206e6f6d652076616c69646f2e000000000000000000602082015260400192915050565b610594816101a9565b60006105848284610611565b60208082528101610584818461059a565b6020808252810161047181610678565b60208082528101610471816106c9565b6060810161077c8286610728565b610789602083018561058b565b61050b6040830184610608565b60405181810167ffffffffffffffff811182821017156107b557600080fd5b604052919050565b600067ffffffffffffffff8211156107d457600080fd5b506020601f91909101601f19160190565b60200190565b5190565b90815260200190565b919050565b60006104718261080d565b151590565b6001600160a01b031690565b82818337506000910152565b60005b83811015610840578181015183820152602001610828565b8381111561084f576000848401525b50505050565b601f01601f191690565b61086881610808565b811461087357600080fd5b50565b610868816101a956fea365627a7a7231582032c8c1a211899a8f1fee250c819ca1df317bfaa038862e2c1690b680b383f2646c6578706572696d656e74616cf564736f6c63430005100040",
  "source": "pragma experimental ABIEncoderV2;\r\n\r\n/*\t\t\r\n*\t\t\r\n*\t\tImplementação de contrato simples:\r\n*\t\tPara funcionamento deve-se primeiro setar o contrato na \r\n*\t\tblockchain e depois para realizar a compra, seguir as regras \r\n*\t\te pronto, ele mudará de dono e valor, se o valor da compra\r\n*\t\tfor maior que o inicial\r\n*\r\n*\r\n*/\r\n\r\n\r\ncontract Actions {\r\n    \r\n    struct Ativo {\r\n        uint256 valor;\r\n        address dono;\r\n        bool vendivel;\r\n    }\r\n    \r\n    mapping (string => Ativo) public ativos;\r\n    \r\n    string [] private nomeAtivo;\r\n    \r\n    function setAtivos(uint256 _valor, bool _vendivel, string memory _nomeAtivo) public {\r\n        \r\n        nomeAtivo.push(_nomeAtivo);\r\n        ativos[_nomeAtivo].valor = _valor;\r\n        ativos[_nomeAtivo].vendivel = _vendivel;\r\n        ativos[_nomeAtivo].dono = msg.sender;\r\n    \r\n    }\r\n    \r\n    function getAtivos () external view returns (string[] memory nomesAtivo) {\r\n        return nomeAtivo;\r\n    }\r\n    \r\n    \r\n    function comprar (string memory _nomeAtivo) public payable {\r\n        require (ativos[_nomeAtivo].vendivel == true, \"O ativo nao pode ser vendido ou nao possue nome valido.\");\r\n        require (msg.value >= ativos[_nomeAtivo].valor, \"O valor precisa ser maior que o preco do ativo.\");\r\n        ativos[_nomeAtivo].valor = msg.value;\r\n        ativos[_nomeAtivo].dono = msg.sender;\r\n    }\r\n\r\n}",
  "sourcePath": "D:/IFB/IF investimentos/contracts/Actions.sol",
  "compiler": {
    "name": "solc",
    "version": "0.5.16+commit.9c3226ce.Emscripten.clang"
  },
  "schemaVersion": "3.3.4",
  "updatedAt": "2021-03-03T13:38:35.576Z",
  "networkType": "ethereum",
  "devdoc": {
    "methods": {}
  },
  "userdoc": {
    "methods": {}
  }
}