{
  "contractName": "StockMarket",
  "abi": [
    {
      "inputs": [],
      "payable": false,
      "stateMutability": "nonpayable",
      "type": "constructor"
    },
    {
      "constant": true,
      "inputs": [
        {
          "internalType": "uint256",
          "name": "",
          "type": "uint256"
        }
      ],
      "name": "ativos",
      "outputs": [
        {
          "internalType": "uint256",
          "name": "id",
          "type": "uint256"
        },
        {
          "internalType": "uint256",
          "name": "valor",
          "type": "uint256"
        },
        {
          "internalType": "address payable",
          "name": "dono",
          "type": "address"
        },
        {
          "internalType": "bool",
          "name": "vendivel",
          "type": "bool"
        },
        {
          "internalType": "string",
          "name": "name",
          "type": "string"
        }
      ],
      "payable": false,
      "stateMutability": "view",
      "type": "function"
    },
    {
      "constant": true,
      "inputs": [],
      "name": "ativosCount",
      "outputs": [
        {
          "internalType": "uint256",
          "name": "",
          "type": "uint256"
        }
      ],
      "payable": false,
      "stateMutability": "view",
      "type": "function"
    },
    {
      "constant": false,
      "inputs": [
        {
          "internalType": "string",
          "name": "_nomeAtivo",
          "type": "string"
        },
        {
          "internalType": "uint256",
          "name": "_valor",
          "type": "uint256"
        },
        {
          "internalType": "bool",
          "name": "status",
          "type": "bool"
        }
      ],
      "name": "createAtivo",
      "outputs": [],
      "payable": false,
      "stateMutability": "nonpayable",
      "type": "function"
    },
    {
      "constant": false,
      "inputs": [],
      "name": "getAtivosByAccount",
      "outputs": [
        {
          "internalType": "uint256[]",
          "name": "",
          "type": "uint256[]"
        }
      ],
      "payable": false,
      "stateMutability": "nonpayable",
      "type": "function"
    },
    {
      "constant": false,
      "inputs": [
        {
          "internalType": "uint256",
          "name": "ativoIndex",
          "type": "uint256"
        }
      ],
      "name": "comprar",
      "outputs": [],
      "payable": true,
      "stateMutability": "payable",
      "type": "function"
    }
  ],
  "bytecode": "0x6080604052600080553480156200001557600080fd5b50620000606040518060400160405280600481526020017f495453410000000000000000000000000000000000000000000000000000000081525060146001620001d860201b60201c565b620000aa6040518060400160405280600581526020017f495453413200000000000000000000000000000000000000000000000000000081525060146001620001d860201b60201c565b620000f46040518060400160405280600581526020017f495453413300000000000000000000000000000000000000000000000000000081525060146001620001d860201b60201c565b6200013e6040518060400160405280600a81526020017f54657374652044616e790000000000000000000000000000000000000000000081525060286001620001d860201b60201c565b620001886040518060400160405280600581526020017f424244433400000000000000000000000000000000000000000000000000000081525060236001620001d860201b60201c565b620001d26040518060400160405280600581526020017f504554523400000000000000000000000000000000000000000000000000000081525060126000620001d860201b60201c565b6200038f565b60008081548092919060010191905055506040518060a0016040528060005481526020018381526020013373ffffffffffffffffffffffffffffffffffffffff1681526020018215158152602001848152506001600080548152602001908152602001600020600082015181600001556020820151816001015560408201518160020160006101000a81548173ffffffffffffffffffffffffffffffffffffffff021916908373ffffffffffffffffffffffffffffffffffffffff16021790555060608201518160020160146101000a81548160ff0219169083151502179055506080820151816003019080519060200190620002d7929190620002e0565b50905050505050565b828054600181600116156101000203166002900490600052602060002090601f016020900481019282601f106200032357805160ff191683800117855562000354565b8280016001018555821562000354579182015b828111156200035357825182559160200191906001019062000336565b5b50905062000363919062000367565b5090565b6200038c91905b80821115620003885760008160009055506001016200036e565b5090565b90565b610e4c806200039f6000396000f3fe60806040526004361061004a5760003560e01c806302bcd3351461004f578063231960631461006b5780638dceb525146100945780639c0bb982146100bf578063b8a131e7146100ea575b600080fd5b610069600480360361006491908101906109db565b61012b565b005b34801561007757600080fd5b50610092600480360361008d9190810190610974565b610459565b005b3480156100a057600080fd5b506100a961055f565b6040516100b69190610c1d565b60405180910390f35b3480156100cb57600080fd5b506100d4610565565b6040516100e19190610bbb565b60405180910390f35b3480156100f657600080fd5b50610111600480360361010c91908101906109db565b61070f565b604051610122959493929190610c38565b60405180910390f35b61013361080a565b600160008381526020019081526020016000206040518060a001604052908160008201548152602001600182015481526020016002820160009054906101000a900473ffffffffffffffffffffffffffffffffffffffff1673ffffffffffffffffffffffffffffffffffffffff1673ffffffffffffffffffffffffffffffffffffffff1681526020016002820160149054906101000a900460ff16151515158152602001600382018054600181600116156101000203166002900480601f01602080910402602001604051908101604052809291908181526020018280546001816001161561010002031660029004801561026f5780601f106102445761010080835404028352916020019161026f565b820191906000526020600020905b81548152906001019060200180831161025257829003601f168201915b50505050508152505090506000816040015190506001151582606001511515146102ce576040517f08c379a00000000000000000000000000000000000000000000000000000000081526004016102c590610bfd565b60405180910390fd5b8160200151341015610315576040517f08c379a000000000000000000000000000000000000000000000000000000000815260040161030c90610bdd565b60405180910390fd5b33826040019073ffffffffffffffffffffffffffffffffffffffff16908173ffffffffffffffffffffffffffffffffffffffff168152505060008260600190151590811515815250508160016000858152602001908152602001600020600082015181600001556020820151816001015560408201518160020160006101000a81548173ffffffffffffffffffffffffffffffffffffffff021916908373ffffffffffffffffffffffffffffffffffffffff16021790555060608201518160020160146101000a81548160ff0219169083151502179055506080820151816003019080519060200190610409929190610851565b509050508073ffffffffffffffffffffffffffffffffffffffff166108fc349081150290604051600060405180830381858888f19350505050158015610453573d6000803e3d6000fd5b50505050565b60008081548092919060010191905055506040518060a0016040528060005481526020018381526020013373ffffffffffffffffffffffffffffffffffffffff1681526020018215158152602001848152506001600080548152602001908152602001600020600082015181600001556020820151816001015560408201518160020160006101000a81548173ffffffffffffffffffffffffffffffffffffffff021916908373ffffffffffffffffffffffffffffffffffffffff16021790555060608201518160020160146101000a81548160ff0219169083151502179055506080820151816003019080519060200190610556929190610851565b50905050505050565b60005481565b60606000339050600080905060008090505b6000548111610600578273ffffffffffffffffffffffffffffffffffffffff166001600083815260200190815260200160002060020160009054906101000a900473ffffffffffffffffffffffffffffffffffffffff1673ffffffffffffffffffffffffffffffffffffffff1614156105f35781806001019250505b8080600101915050610577565b506060816040519080825280602002602001820160405280156106325781602001602082028038833980820191505090505b509050600080905060008090505b6000548110801561065057508382105b15610704578473ffffffffffffffffffffffffffffffffffffffff166001600083815260200190815260200160002060020160009054906101000a900473ffffffffffffffffffffffffffffffffffffffff1673ffffffffffffffffffffffffffffffffffffffff1614156106f75760016000828152602001908152602001600020600001548383815181106106e257fe5b60200260200101818152505081806001019250505b8080600101915050610640565b508194505050505090565b60016020528060005260406000206000915090508060000154908060010154908060020160009054906101000a900473ffffffffffffffffffffffffffffffffffffffff16908060020160149054906101000a900460ff1690806003018054600181600116156101000203166002900480601f0160208091040260200160405190810160405280929190818152602001828054600181600116156101000203166002900480156108005780601f106107d557610100808354040283529160200191610800565b820191906000526020600020905b8154815290600101906020018083116107e357829003601f168201915b5050505050905085565b6040518060a001604052806000815260200160008152602001600073ffffffffffffffffffffffffffffffffffffffff168152602001600015158152602001606081525090565b828054600181600116156101000203166002900490600052602060002090601f016020900481019282601f1061089257805160ff19168380011785556108c0565b828001600101855582156108c0579182015b828111156108bf5782518255916020019190600101906108a4565b5b5090506108cd91906108d1565b5090565b6108f391905b808211156108ef5760008160009055506001016108d7565b5090565b90565b60008135905061090581610ddb565b92915050565b600082601f83011261091c57600080fd5b813561092f61092a82610cbf565b610c92565b9150808252602083016020830185838301111561094b57600080fd5b610956838284610d88565b50505092915050565b60008135905061096e81610df2565b92915050565b60008060006060848603121561098957600080fd5b600084013567ffffffffffffffff8111156109a357600080fd5b6109af8682870161090b565b93505060206109c08682870161095f565b92505060406109d1868287016108f6565b9150509250925092565b6000602082840312156109ed57600080fd5b60006109fb8482850161095f565b91505092915050565b6000610a108383610b9d565b60208301905092915050565b610a2581610d40565b82525050565b6000610a3682610cfb565b610a408185610d1e565b9350610a4b83610ceb565b8060005b83811015610a7c578151610a638882610a04565b9750610a6e83610d11565b925050600181019050610a4f565b5085935050505092915050565b610a9281610d52565b82525050565b6000610aa382610d06565b610aad8185610d2f565b9350610abd818560208601610d97565b610ac681610dca565b840191505092915050565b6000610ade602f83610d2f565b91507f4f2076616c6f72207072656369736120736572206d61696f7220717565206f2060008301527f707265636f20646f20617469766f2e00000000000000000000000000000000006020830152604082019050919050565b6000610b44603783610d2f565b91507f4f20617469766f206e616f20706f6465207365722076656e6469646f206f752060008301527f6e616f20706f73737565206e6f6d652076616c69646f2e0000000000000000006020830152604082019050919050565b610ba681610d7e565b82525050565b610bb581610d7e565b82525050565b60006020820190508181036000830152610bd58184610a2b565b905092915050565b60006020820190508181036000830152610bf681610ad1565b9050919050565b60006020820190508181036000830152610c1681610b37565b9050919050565b6000602082019050610c326000830184610bac565b92915050565b600060a082019050610c4d6000830188610bac565b610c5a6020830187610bac565b610c676040830186610a1c565b610c746060830185610a89565b8181036080830152610c868184610a98565b90509695505050505050565b6000604051905081810181811067ffffffffffffffff82111715610cb557600080fd5b8060405250919050565b600067ffffffffffffffff821115610cd657600080fd5b601f19601f8301169050602081019050919050565b6000819050602082019050919050565b600081519050919050565b600081519050919050565b6000602082019050919050565b600082825260208201905092915050565b600082825260208201905092915050565b6000610d4b82610d5e565b9050919050565b60008115159050919050565b600073ffffffffffffffffffffffffffffffffffffffff82169050919050565b6000819050919050565b82818337600083830152505050565b60005b83811015610db5578082015181840152602081019050610d9a565b83811115610dc4576000848401525b50505050565b6000601f19601f8301169050919050565b610de481610d52565b8114610def57600080fd5b50565b610dfb81610d7e565b8114610e0657600080fd5b5056fea365627a7a72315820d9adfdd55c99534bcb3f5c4212fec69311fa1afb2eb3a80b8e254b8b3d1315ad6c6578706572696d656e74616cf564736f6c63430005100040",
  "source": "pragma solidity >=0.5.0;\npragma experimental ABIEncoderV2;\n/*        \n*        \n*        Implementação de contrato simples:\n*        Para funcionamento deve-se primeiro setar o contrato na \n*        blockchain e depois para realizar a compra, seguir as regras \n*        e pronto, ele mudará de dono e valor, se o valor da compra\n*        for maior que o inicial\n*\n*\n*/\ncontract StockMarket {\n    \n    struct Ativo {\n        uint id;\n        uint valor;\n        address payable dono;\n        bool vendivel;\n        string name;\n    }\n    \n    uint public ativosCount = 0;\n    \n    mapping (uint => Ativo) public ativos;\n    \n   constructor() public{\n       createAtivo(\"ITSA\", 20,true);\n       createAtivo(\"ITSA2\", 20,true);\n       createAtivo(\"ITSA3\", 20,true);\n       createAtivo(\"Teste Dany\", 40,true);\n       createAtivo(\"BBDC4\", 35,true);\n       createAtivo(\"PETR4\", 18,false);\n   }\n    \n    function createAtivo(string memory _nomeAtivo, uint _valor, bool status) public{\n        ativosCount++;\n        \n        ativos[ativosCount] = Ativo(ativosCount, _valor, msg.sender, status, _nomeAtivo);\n    }\n    \n    \n    /*TODO: aparentemente solidity não permite retornar structs. Conferir isso.*/\n    function getAtivosByAccount() public returns(uint[] memory) {\n        address owner = msg.sender;\n        \n        uint ownerAtivosCount = 0; \n        \n        // Verifica quantas ações a conta possui\n        for(uint i = 0; i <= ativosCount; i++){\n            if(ativos[i].dono == owner){\n                ownerAtivosCount++;\n            }\n        }\n        //Ativo[] memory ownerAtivos = new Ativo[](ownerAtivosCount);\n        uint[] memory id = new uint[](ownerAtivosCount);\n        uint j = 0;\n        \n        for(uint i = 0; i < ativosCount && j < ownerAtivosCount; i++){\n            if(ativos[i].dono == owner){\n                id[j]= ativos[i].id;\n                //Ativo storage a = ativos[i];\n                //ownerAtivos[j] = a;\n                j++;\n            }\n        }  \n        //return ownerAtivos\n        return id;\n    }\n    \n    \n    function comprar(uint ativoIndex) public payable {\n        Ativo memory _ativo = ativos[ativoIndex];\n        \n        address payable _ativoOwner = _ativo.dono;\n        \n        require (_ativo.vendivel == true, \"O ativo nao pode ser vendido ou nao possue nome valido.\");\n        require (msg.value >= _ativo.valor, \"O valor precisa ser maior que o preco do ativo.\");\n        \n       _ativo.dono = msg.sender;\n       _ativo.vendivel = false;\n       \n       ativos[ativoIndex] = _ativo;\n       _ativoOwner.transfer(msg.value);\n    }\n\n}",
  "sourcePath": "/media/danyelle/Data/IFB/Oitavo semestre/Blockchain/Trabalho/IF-investimentos/contracts/StockMarket.sol",
  "compiler": {
    "name": "solc",
    "version": "0.5.16+commit.9c3226ce.Emscripten.clang"
  },
  "schemaVersion": "3.3.4",
  "updatedAt": "2021-03-10T04:25:13.806Z",
  "networkType": "ethereum",
  "devdoc": {
    "methods": {}
  },
  "userdoc": {
    "methods": {}
  }
}