{
  "contractName": "StockMarket",
  "abi": [
    {
      "inputs": [],
      "payable": false,
      "stateMutability": "nonpayable",
      "type": "constructor"
    },
    {
      "constant": true,
      "inputs": [
        {
          "internalType": "uint256",
          "name": "",
          "type": "uint256"
        }
      ],
      "name": "ativos",
      "outputs": [
        {
          "internalType": "uint256",
          "name": "id",
          "type": "uint256"
        },
        {
          "internalType": "uint256",
          "name": "valor",
          "type": "uint256"
        },
        {
          "internalType": "address payable",
          "name": "dono",
          "type": "address"
        },
        {
          "internalType": "bool",
          "name": "vendivel",
          "type": "bool"
        },
        {
          "internalType": "string",
          "name": "name",
          "type": "string"
        }
      ],
      "payable": false,
      "stateMutability": "view",
      "type": "function"
    },
    {
      "constant": true,
      "inputs": [],
      "name": "ativosCount",
      "outputs": [
        {
          "internalType": "uint256",
          "name": "",
          "type": "uint256"
        }
      ],
      "payable": false,
      "stateMutability": "view",
      "type": "function"
    },
    {
      "constant": false,
      "inputs": [
        {
          "internalType": "string",
          "name": "_nomeAtivo",
          "type": "string"
        },
        {
          "internalType": "uint256",
          "name": "_valor",
          "type": "uint256"
        }
      ],
      "name": "createAtivo",
      "outputs": [],
      "payable": false,
      "stateMutability": "nonpayable",
      "type": "function"
    },
    {
      "constant": true,
      "inputs": [],
      "name": "getAtivosByAccount",
      "outputs": [
        {
          "components": [
            {
              "internalType": "uint256",
              "name": "id",
              "type": "uint256"
            },
            {
              "internalType": "uint256",
              "name": "valor",
              "type": "uint256"
            },
            {
              "internalType": "address payable",
              "name": "dono",
              "type": "address"
            },
            {
              "internalType": "bool",
              "name": "vendivel",
              "type": "bool"
            },
            {
              "internalType": "string",
              "name": "name",
              "type": "string"
            }
          ],
          "internalType": "struct StockMarket.Ativo[]",
          "name": "",
          "type": "tuple[]"
        }
      ],
      "payable": false,
      "stateMutability": "view",
      "type": "function"
    },
    {
      "constant": false,
      "inputs": [
        {
          "internalType": "uint256",
          "name": "ativoIndex",
          "type": "uint256"
        }
      ],
      "name": "changeAtivoAvailability",
      "outputs": [],
      "payable": true,
      "stateMutability": "payable",
      "type": "function"
    },
    {
      "constant": false,
      "inputs": [
        {
          "internalType": "uint256",
          "name": "ativoIndex",
          "type": "uint256"
        }
      ],
      "name": "comprar",
      "outputs": [],
      "payable": true,
      "stateMutability": "payable",
      "type": "function"
    }
  ],
  "bytecode": "0x6080604052600080553480156200001557600080fd5b506200005e6040518060400160405280600481526020017f495453410000000000000000000000000000000000000000000000000000000081525060146200018460201b60201c565b620000a66040518060400160405280600581526020017f495453413200000000000000000000000000000000000000000000000000000081525060146200018460201b60201c565b620000ee6040518060400160405280600581526020017f495453413300000000000000000000000000000000000000000000000000000081525060146200018460201b60201c565b620001366040518060400160405280600581526020017f424244433400000000000000000000000000000000000000000000000000000081525060236200018460201b60201c565b6200017e6040518060400160405280600581526020017f504554523400000000000000000000000000000000000000000000000000000081525060126200018460201b60201c565b6200033b565b60008081548092919060010191905055506040518060a0016040528060005481526020018281526020013373ffffffffffffffffffffffffffffffffffffffff168152602001600115158152602001838152506001600080548152602001908152602001600020600082015181600001556020820151816001015560408201518160020160006101000a81548173ffffffffffffffffffffffffffffffffffffffff021916908373ffffffffffffffffffffffffffffffffffffffff16021790555060608201518160020160146101000a81548160ff0219169083151502179055506080820151816003019080519060200190620002849291906200028c565b509050505050565b828054600181600116156101000203166002900490600052602060002090601f016020900481019282601f10620002cf57805160ff191683800117855562000300565b8280016001018555821562000300579182015b82811115620002ff578251825591602001919060010190620002e2565b5b5090506200030f919062000313565b5090565b6200033891905b80821115620003345760008160009055506001016200031a565b5090565b90565b6112af806200034b6000396000f3fe6080604052600436106100555760003560e01c806302bcd3351461005a578063460ee420146100765780638dceb525146100925780639c0bb982146100bd578063b8a131e7146100e8578063e6de9f3814610129575b600080fd5b610074600480360361006f9190810190610d64565b610152565b005b610090600480360361008b9190810190610d64565b610480565b005b34801561009e57600080fd5b506100a7610697565b6040516100b49190611086565b60405180910390f35b3480156100c957600080fd5b506100d261069d565b6040516100df9190611024565b60405180910390f35b3480156100f457600080fd5b5061010f600480360361010a9190810190610d64565b610973565b6040516101209594939291906110a1565b60405180910390f35b34801561013557600080fd5b50610150600480360361014b9190810190610d10565b610a6e565b005b61015a610b74565b600160008381526020019081526020016000206040518060a001604052908160008201548152602001600182015481526020016002820160009054906101000a900473ffffffffffffffffffffffffffffffffffffffff1673ffffffffffffffffffffffffffffffffffffffff1673ffffffffffffffffffffffffffffffffffffffff1681526020016002820160149054906101000a900460ff16151515158152602001600382018054600181600116156101000203166002900480601f0160208091040260200160405190810160405280929190818152602001828054600181600116156101000203166002900480156102965780601f1061026b57610100808354040283529160200191610296565b820191906000526020600020905b81548152906001019060200180831161027957829003601f168201915b50505050508152505090506000816040015190506001151582606001511515146102f5576040517f08c379a00000000000000000000000000000000000000000000000000000000081526004016102ec90611066565b60405180910390fd5b816020015134101561033c576040517f08c379a000000000000000000000000000000000000000000000000000000000815260040161033390611046565b60405180910390fd5b33826040019073ffffffffffffffffffffffffffffffffffffffff16908173ffffffffffffffffffffffffffffffffffffffff168152505060008260600190151590811515815250508160016000858152602001908152602001600020600082015181600001556020820151816001015560408201518160020160006101000a81548173ffffffffffffffffffffffffffffffffffffffff021916908373ffffffffffffffffffffffffffffffffffffffff16021790555060608201518160020160146101000a81548160ff0219169083151502179055506080820151816003019080519060200190610430929190610bbb565b509050508073ffffffffffffffffffffffffffffffffffffffff166108fc349081150290604051600060405180830381858888f1935050505015801561047a573d6000803e3d6000fd5b50505050565b610488610b74565b600160008381526020019081526020016000206040518060a001604052908160008201548152602001600182015481526020016002820160009054906101000a900473ffffffffffffffffffffffffffffffffffffffff1673ffffffffffffffffffffffffffffffffffffffff1673ffffffffffffffffffffffffffffffffffffffff1681526020016002820160149054906101000a900460ff16151515158152602001600382018054600181600116156101000203166002900480601f0160208091040260200160405190810160405280929190818152602001828054600181600116156101000203166002900480156105c45780601f10610599576101008083540402835291602001916105c4565b820191906000526020600020905b8154815290600101906020018083116105a757829003601f168201915b50505050508152505090508060600151158160600190151590811515815250508060016000848152602001908152602001600020600082015181600001556020820151816001015560408201518160020160006101000a81548173ffffffffffffffffffffffffffffffffffffffff021916908373ffffffffffffffffffffffffffffffffffffffff16021790555060608201518160020160146101000a81548160ff021916908315150217905550608082015181600301908051906020019061068f929190610bbb565b509050505050565b60005481565b60606000339050600080905060008090505b6000548111610738578273ffffffffffffffffffffffffffffffffffffffff166001600083815260200190815260200160002060020160009054906101000a900473ffffffffffffffffffffffffffffffffffffffff1673ffffffffffffffffffffffffffffffffffffffff16141561072b5781806001019250505b80806001019150506106af565b5060608160405190808252806020026020018201604052801561077557816020015b610762610c3b565b81526020019060019003908161075a5790505b509050600080905060008090505b6000548111610968578473ffffffffffffffffffffffffffffffffffffffff166001600083815260200190815260200160002060020160009054906101000a900473ffffffffffffffffffffffffffffffffffffffff1673ffffffffffffffffffffffffffffffffffffffff16141561095b57600160008281526020019081526020016000206040518060a001604052908160008201548152602001600182015481526020016002820160009054906101000a900473ffffffffffffffffffffffffffffffffffffffff1673ffffffffffffffffffffffffffffffffffffffff1673ffffffffffffffffffffffffffffffffffffffff1681526020016002820160149054906101000a900460ff16151515158152602001600382018054600181600116156101000203166002900480601f0160208091040260200160405190810160405280929190818152602001828054600181600116156101000203166002900480156109325780601f1061090757610100808354040283529160200191610932565b820191906000526020600020905b81548152906001019060200180831161091557829003601f168201915b50505050508152505083838151811061094757fe5b602002602001018190525081806001019250505b8080600101915050610783565b508194505050505090565b60016020528060005260406000206000915090508060000154908060010154908060020160009054906101000a900473ffffffffffffffffffffffffffffffffffffffff16908060020160149054906101000a900460ff1690806003018054600181600116156101000203166002900480601f016020809104026020016040519081016040528092919081815260200182805460018160011615610100020316600290048015610a645780601f10610a3957610100808354040283529160200191610a64565b820191906000526020600020905b815481529060010190602001808311610a4757829003601f168201915b5050505050905085565b60008081548092919060010191905055506040518060a0016040528060005481526020018281526020013373ffffffffffffffffffffffffffffffffffffffff168152602001600115158152602001838152506001600080548152602001908152602001600020600082015181600001556020820151816001015560408201518160020160006101000a81548173ffffffffffffffffffffffffffffffffffffffff021916908373ffffffffffffffffffffffffffffffffffffffff16021790555060608201518160020160146101000a81548160ff0219169083151502179055506080820151816003019080519060200190610b6c929190610bbb565b509050505050565b6040518060a001604052806000815260200160008152602001600073ffffffffffffffffffffffffffffffffffffffff168152602001600015158152602001606081525090565b828054600181600116156101000203166002900490600052602060002090601f016020900481019282601f10610bfc57805160ff1916838001178555610c2a565b82800160010185558215610c2a579182015b82811115610c29578251825591602001919060010190610c0e565b5b509050610c379190610c82565b5090565b6040518060a001604052806000815260200160008152602001600073ffffffffffffffffffffffffffffffffffffffff168152602001600015158152602001606081525090565b610ca491905b80821115610ca0576000816000905550600101610c88565b5090565b90565b600082601f830112610cb857600080fd5b8135610ccb610cc682611128565b6110fb565b91508082526020830160208301858383011115610ce757600080fd5b610cf2838284611202565b50505092915050565b600081359050610d0a81611255565b92915050565b60008060408385031215610d2357600080fd5b600083013567ffffffffffffffff811115610d3d57600080fd5b610d4985828601610ca7565b9250506020610d5a85828601610cfb565b9150509250929050565b600060208284031215610d7657600080fd5b6000610d8484828501610cfb565b91505092915050565b6000610d998383610f90565b905092915050565b610daa816111ba565b82525050565b610db9816111ba565b82525050565b6000610dca82611164565b610dd48185611187565b935083602082028501610de685611154565b8060005b85811015610e225784840389528151610e038582610d8d565b9450610e0e8361117a565b925060208a01995050600181019050610dea565b50829750879550505050505092915050565b610e3d816111cc565b82525050565b610e4c816111cc565b82525050565b6000610e5d8261116f565b610e678185611198565b9350610e77818560208601611211565b610e8081611244565b840191505092915050565b6000610e968261116f565b610ea081856111a9565b9350610eb0818560208601611211565b610eb981611244565b840191505092915050565b6000610ed1602f836111a9565b91507f4f2076616c6f72207072656369736120736572206d61696f7220717565206f2060008301527f707265636f20646f20617469766f2e00000000000000000000000000000000006020830152604082019050919050565b6000610f376037836111a9565b91507f4f20617469766f206e616f20706f6465207365722076656e6469646f206f752060008301527f6e616f20706f73737565206e6f6d652076616c69646f2e0000000000000000006020830152604082019050919050565b600060a083016000830151610fa86000860182611006565b506020830151610fbb6020860182611006565b506040830151610fce6040860182610da1565b506060830151610fe16060860182610e34565b5060808301518482036080860152610ff98282610e52565b9150508091505092915050565b61100f816111f8565b82525050565b61101e816111f8565b82525050565b6000602082019050818103600083015261103e8184610dbf565b905092915050565b6000602082019050818103600083015261105f81610ec4565b9050919050565b6000602082019050818103600083015261107f81610f2a565b9050919050565b600060208201905061109b6000830184611015565b92915050565b600060a0820190506110b66000830188611015565b6110c36020830187611015565b6110d06040830186610db0565b6110dd6060830185610e43565b81810360808301526110ef8184610e8b565b90509695505050505050565b6000604051905081810181811067ffffffffffffffff8211171561111e57600080fd5b8060405250919050565b600067ffffffffffffffff82111561113f57600080fd5b601f19601f8301169050602081019050919050565b6000819050602082019050919050565b600081519050919050565b600081519050919050565b6000602082019050919050565b600082825260208201905092915050565b600082825260208201905092915050565b600082825260208201905092915050565b60006111c5826111d8565b9050919050565b60008115159050919050565b600073ffffffffffffffffffffffffffffffffffffffff82169050919050565b6000819050919050565b82818337600083830152505050565b60005b8381101561122f578082015181840152602081019050611214565b8381111561123e576000848401525b50505050565b6000601f19601f8301169050919050565b61125e816111f8565b811461126957600080fd5b5056fea365627a7a72315820b7cc2b701041b6ccfabf75a1696d6a4e0b7cf3f0d2e49f2f5450e6aebf7e07746c6578706572696d656e74616cf564736f6c63430005100040",
  "source": "pragma solidity >=0.5.0;\r\npragma experimental ABIEncoderV2;\r\n/*        \r\n*        \r\n*        Implementação de contrato simples:\r\n*        Para funcionamento deve-se primeiro setar o contrato na \r\n*        blockchain e depois para realizar a compra, seguir as regras \r\n*        e pronto, ele mudará de dono e valor, se o valor da compra\r\n*        for maior que o inicial\r\n*\r\n*\r\n*/\r\ncontract StockMarket {\r\n\r\n    struct Ativo {\r\n        uint id;\r\n        uint valor;\r\n        address payable dono;\r\n        bool vendivel;\r\n        string name;\r\n    }\r\n\r\n    uint public ativosCount = 0;\r\n\r\n    mapping (uint => Ativo) public ativos;\r\n\r\n   constructor() public{\r\n       createAtivo(\"ITSA\", 20);\r\n       createAtivo(\"ITSA2\", 20);\r\n       createAtivo(\"ITSA3\", 20);\r\n       createAtivo(\"BBDC4\", 35);\r\n       createAtivo(\"PETR4\", 18);\r\n   }\r\n\r\n    function createAtivo(string memory _nomeAtivo, uint _valor) public{\r\n        ativosCount++;\r\n\r\n        ativos[ativosCount] = Ativo(ativosCount, _valor, msg.sender, true, _nomeAtivo);\r\n    }\r\n\r\n\r\n    function getAtivosByAccount() public view returns(Ativo[] memory) {\r\n        address payable owner = msg.sender;\r\n\r\n        uint ownerAtivosCount = 0; \r\n\r\n        // Verifica quantas ações a conta possui\r\n        for(uint i = 0; i <= ativosCount; i++){\r\n            if(ativos[i].dono == owner){\r\n                ownerAtivosCount++;\r\n            }\r\n        }\r\n\r\n        Ativo[] memory ownerAtivos = new Ativo[](ownerAtivosCount);\r\n        uint j = 0;\r\n\r\n        for(uint i = 0; i <= ativosCount; i++){\r\n            if(ativos[i].dono == owner){\r\n                ownerAtivos[j] = ativos[i];\r\n                j++;\r\n            }\r\n        }\r\n\r\n        return ownerAtivos;\r\n    }\r\n\r\n    function changeAtivoAvailability(uint ativoIndex) public payable {\r\n        Ativo memory _ativo = ativos[ativoIndex];\r\n        \r\n        // Alterna a disponibilidade do ativo\r\n        _ativo.vendivel = !_ativo.vendivel;\r\n        \r\n        ativos[ativoIndex] = _ativo;\r\n    }\r\n\r\n    function comprar(uint ativoIndex) public payable {\r\n        Ativo memory _ativo = ativos[ativoIndex];\r\n\r\n        address payable _ativoOwner = _ativo.dono;\r\n\r\n        require (_ativo.vendivel == true, \"O ativo nao pode ser vendido ou nao possue nome valido.\");\r\n        require (msg.value >= _ativo.valor, \"O valor precisa ser maior que o preco do ativo.\");\r\n\r\n       _ativo.dono = msg.sender;\r\n       _ativo.vendivel = false;\r\n\r\n       ativos[ativoIndex] = _ativo;\r\n       _ativoOwner.transfer(msg.value);\r\n    }\r\n\r\n} ",
  "sourcePath": "D:/Projetos Faculdade/Blockchain/IF-investimentos/contracts/StockMarket.sol",
  "compiler": {
    "name": "solc",
    "version": "0.5.16+commit.9c3226ce.Emscripten.clang"
  },
  "schemaVersion": "3.3.3",
  "updatedAt": "2021-03-15T16:54:20.514Z",
  "networkType": "ethereum",
  "devdoc": {
    "methods": {}
  },
  "userdoc": {
    "methods": {}
  }
}