{
  "contractName": "StockMarket",
  "abi": [
    {
      "inputs": [],
      "payable": false,
      "stateMutability": "nonpayable",
      "type": "constructor"
    },
    {
      "constant": true,
      "inputs": [
        {
          "internalType": "uint256",
          "name": "",
          "type": "uint256"
        }
      ],
      "name": "ativos",
      "outputs": [
        {
          "internalType": "uint256",
          "name": "id",
          "type": "uint256"
        },
        {
          "internalType": "uint256",
          "name": "valor",
          "type": "uint256"
        },
        {
          "internalType": "address payable",
          "name": "dono",
          "type": "address"
        },
        {
          "internalType": "bool",
          "name": "vendivel",
          "type": "bool"
        },
        {
          "internalType": "string",
          "name": "name",
          "type": "string"
        }
      ],
      "payable": false,
      "stateMutability": "view",
      "type": "function"
    },
    {
      "constant": true,
      "inputs": [],
      "name": "ativosCount",
      "outputs": [
        {
          "internalType": "uint256",
          "name": "",
          "type": "uint256"
        }
      ],
      "payable": false,
      "stateMutability": "view",
      "type": "function"
    },
    {
      "constant": false,
      "inputs": [
        {
          "internalType": "string",
          "name": "_nomeAtivo",
          "type": "string"
        },
        {
          "internalType": "uint256",
          "name": "_valor",
          "type": "uint256"
        }
      ],
      "name": "createAtivo",
      "outputs": [],
      "payable": false,
      "stateMutability": "nonpayable",
      "type": "function"
    },
    {
      "constant": true,
      "inputs": [],
      "name": "getAtivosByAccount",
      "outputs": [
        {
          "components": [
            {
              "internalType": "uint256",
              "name": "id",
              "type": "uint256"
            },
            {
              "internalType": "uint256",
              "name": "valor",
              "type": "uint256"
            },
            {
              "internalType": "address payable",
              "name": "dono",
              "type": "address"
            },
            {
              "internalType": "bool",
              "name": "vendivel",
              "type": "bool"
            },
            {
              "internalType": "string",
              "name": "name",
              "type": "string"
            }
          ],
          "internalType": "struct StockMarket.Ativo[]",
          "name": "",
          "type": "tuple[]"
        }
      ],
      "payable": false,
      "stateMutability": "view",
      "type": "function"
    },
    {
      "constant": false,
      "inputs": [
        {
          "internalType": "uint256",
          "name": "ativoIndex",
          "type": "uint256"
        }
      ],
      "name": "comprar",
      "outputs": [],
      "payable": true,
      "stateMutability": "payable",
      "type": "function"
    }
  ],
  "bytecode": "0x6080604052600080553480156200001557600080fd5b506200005e6040518060400160405280600481526020017f49545341000000000000000000000000000000000000000000000000000000008152506014620000f460201b60201c565b620000a66040518060400160405280600581526020017f49545341320000000000000000000000000000000000000000000000000000008152506014620000f460201b60201c565b620000ee6040518060400160405280600581526020017f49545341330000000000000000000000000000000000000000000000000000008152506014620000f460201b60201c565b620002ab565b60008081548092919060010191905055506040518060a0016040528060005481526020018281526020013373ffffffffffffffffffffffffffffffffffffffff168152602001600115158152602001838152506001600080548152602001908152602001600020600082015181600001556020820151816001015560408201518160020160006101000a81548173ffffffffffffffffffffffffffffffffffffffff021916908373ffffffffffffffffffffffffffffffffffffffff16021790555060608201518160020160146101000a81548160ff0219169083151502179055506080820151816003019080519060200190620001f4929190620001fc565b509050505050565b828054600181600116156101000203166002900490600052602060002090601f016020900481019282601f106200023f57805160ff191683800117855562000270565b8280016001018555821562000270579182015b828111156200026f57825182559160200191906001019062000252565b5b5090506200027f919062000283565b5090565b620002a891905b80821115620002a45760008160009055506001016200028a565b5090565b90565b61107180620002bb6000396000f3fe60806040526004361061004a5760003560e01c806302bcd3351461004f5780638dceb5251461006b5780639c0bb98214610096578063b8a131e7146100c1578063e6de9f3814610102575b600080fd5b61006960048036036100649190810190610b26565b61012b565b005b34801561007757600080fd5b50610080610459565b60405161008d9190610e48565b60405180910390f35b3480156100a257600080fd5b506100ab61045f565b6040516100b89190610de6565b60405180910390f35b3480156100cd57600080fd5b506100e860048036036100e39190810190610b26565b610735565b6040516100f9959493929190610e63565b60405180910390f35b34801561010e57600080fd5b5061012960048036036101249190810190610ad2565b610830565b005b610133610936565b600160008381526020019081526020016000206040518060a001604052908160008201548152602001600182015481526020016002820160009054906101000a900473ffffffffffffffffffffffffffffffffffffffff1673ffffffffffffffffffffffffffffffffffffffff1673ffffffffffffffffffffffffffffffffffffffff1681526020016002820160149054906101000a900460ff16151515158152602001600382018054600181600116156101000203166002900480601f01602080910402602001604051908101604052809291908181526020018280546001816001161561010002031660029004801561026f5780601f106102445761010080835404028352916020019161026f565b820191906000526020600020905b81548152906001019060200180831161025257829003601f168201915b50505050508152505090506000816040015190506001151582606001511515146102ce576040517f08c379a00000000000000000000000000000000000000000000000000000000081526004016102c590610e28565b60405180910390fd5b8160200151341015610315576040517f08c379a000000000000000000000000000000000000000000000000000000000815260040161030c90610e08565b60405180910390fd5b33826040019073ffffffffffffffffffffffffffffffffffffffff16908173ffffffffffffffffffffffffffffffffffffffff168152505060008260600190151590811515815250508160016000858152602001908152602001600020600082015181600001556020820151816001015560408201518160020160006101000a81548173ffffffffffffffffffffffffffffffffffffffff021916908373ffffffffffffffffffffffffffffffffffffffff16021790555060608201518160020160146101000a81548160ff021916908315150217905550608082015181600301908051906020019061040992919061097d565b509050508073ffffffffffffffffffffffffffffffffffffffff166108fc349081150290604051600060405180830381858888f19350505050158015610453573d6000803e3d6000fd5b50505050565b60005481565b60606000339050600080905060008090505b60005481116104fa578273ffffffffffffffffffffffffffffffffffffffff166001600083815260200190815260200160002060020160009054906101000a900473ffffffffffffffffffffffffffffffffffffffff1673ffffffffffffffffffffffffffffffffffffffff1614156104ed5781806001019250505b8080600101915050610471565b5060608160405190808252806020026020018201604052801561053757816020015b6105246109fd565b81526020019060019003908161051c5790505b509050600080905060008090505b600054811161072a578473ffffffffffffffffffffffffffffffffffffffff166001600083815260200190815260200160002060020160009054906101000a900473ffffffffffffffffffffffffffffffffffffffff1673ffffffffffffffffffffffffffffffffffffffff16141561071d57600160008281526020019081526020016000206040518060a001604052908160008201548152602001600182015481526020016002820160009054906101000a900473ffffffffffffffffffffffffffffffffffffffff1673ffffffffffffffffffffffffffffffffffffffff1673ffffffffffffffffffffffffffffffffffffffff1681526020016002820160149054906101000a900460ff16151515158152602001600382018054600181600116156101000203166002900480601f0160208091040260200160405190810160405280929190818152602001828054600181600116156101000203166002900480156106f45780601f106106c9576101008083540402835291602001916106f4565b820191906000526020600020905b8154815290600101906020018083116106d757829003601f168201915b50505050508152505083838151811061070957fe5b602002602001018190525081806001019250505b8080600101915050610545565b508194505050505090565b60016020528060005260406000206000915090508060000154908060010154908060020160009054906101000a900473ffffffffffffffffffffffffffffffffffffffff16908060020160149054906101000a900460ff1690806003018054600181600116156101000203166002900480601f0160208091040260200160405190810160405280929190818152602001828054600181600116156101000203166002900480156108265780601f106107fb57610100808354040283529160200191610826565b820191906000526020600020905b81548152906001019060200180831161080957829003601f168201915b5050505050905085565b60008081548092919060010191905055506040518060a0016040528060005481526020018281526020013373ffffffffffffffffffffffffffffffffffffffff168152602001600115158152602001838152506001600080548152602001908152602001600020600082015181600001556020820151816001015560408201518160020160006101000a81548173ffffffffffffffffffffffffffffffffffffffff021916908373ffffffffffffffffffffffffffffffffffffffff16021790555060608201518160020160146101000a81548160ff021916908315150217905550608082015181600301908051906020019061092e92919061097d565b509050505050565b6040518060a001604052806000815260200160008152602001600073ffffffffffffffffffffffffffffffffffffffff168152602001600015158152602001606081525090565b828054600181600116156101000203166002900490600052602060002090601f016020900481019282601f106109be57805160ff19168380011785556109ec565b828001600101855582156109ec579182015b828111156109eb5782518255916020019190600101906109d0565b5b5090506109f99190610a44565b5090565b6040518060a001604052806000815260200160008152602001600073ffffffffffffffffffffffffffffffffffffffff168152602001600015158152602001606081525090565b610a6691905b80821115610a62576000816000905550600101610a4a565b5090565b90565b600082601f830112610a7a57600080fd5b8135610a8d610a8882610eea565b610ebd565b91508082526020830160208301858383011115610aa957600080fd5b610ab4838284610fc4565b50505092915050565b600081359050610acc81611017565b92915050565b60008060408385031215610ae557600080fd5b600083013567ffffffffffffffff811115610aff57600080fd5b610b0b85828601610a69565b9250506020610b1c85828601610abd565b9150509250929050565b600060208284031215610b3857600080fd5b6000610b4684828501610abd565b91505092915050565b6000610b5b8383610d52565b905092915050565b610b6c81610f7c565b82525050565b610b7b81610f7c565b82525050565b6000610b8c82610f26565b610b968185610f49565b935083602082028501610ba885610f16565b8060005b85811015610be45784840389528151610bc58582610b4f565b9450610bd083610f3c565b925060208a01995050600181019050610bac565b50829750879550505050505092915050565b610bff81610f8e565b82525050565b610c0e81610f8e565b82525050565b6000610c1f82610f31565b610c298185610f5a565b9350610c39818560208601610fd3565b610c4281611006565b840191505092915050565b6000610c5882610f31565b610c628185610f6b565b9350610c72818560208601610fd3565b610c7b81611006565b840191505092915050565b6000610c93602f83610f6b565b91507f4f2076616c6f72207072656369736120736572206d61696f7220717565206f2060008301527f707265636f20646f20617469766f2e00000000000000000000000000000000006020830152604082019050919050565b6000610cf9603783610f6b565b91507f4f20617469766f206e616f20706f6465207365722076656e6469646f206f752060008301527f6e616f20706f73737565206e6f6d652076616c69646f2e0000000000000000006020830152604082019050919050565b600060a083016000830151610d6a6000860182610dc8565b506020830151610d7d6020860182610dc8565b506040830151610d906040860182610b63565b506060830151610da36060860182610bf6565b5060808301518482036080860152610dbb8282610c14565b9150508091505092915050565b610dd181610fba565b82525050565b610de081610fba565b82525050565b60006020820190508181036000830152610e008184610b81565b905092915050565b60006020820190508181036000830152610e2181610c86565b9050919050565b60006020820190508181036000830152610e4181610cec565b9050919050565b6000602082019050610e5d6000830184610dd7565b92915050565b600060a082019050610e786000830188610dd7565b610e856020830187610dd7565b610e926040830186610b72565b610e9f6060830185610c05565b8181036080830152610eb18184610c4d565b90509695505050505050565b6000604051905081810181811067ffffffffffffffff82111715610ee057600080fd5b8060405250919050565b600067ffffffffffffffff821115610f0157600080fd5b601f19601f8301169050602081019050919050565b6000819050602082019050919050565b600081519050919050565b600081519050919050565b6000602082019050919050565b600082825260208201905092915050565b600082825260208201905092915050565b600082825260208201905092915050565b6000610f8782610f9a565b9050919050565b60008115159050919050565b600073ffffffffffffffffffffffffffffffffffffffff82169050919050565b6000819050919050565b82818337600083830152505050565b60005b83811015610ff1578082015181840152602081019050610fd6565b83811115611000576000848401525b50505050565b6000601f19601f8301169050919050565b61102081610fba565b811461102b57600080fd5b5056fea365627a7a72315820e31a58b8b4aa854848b6958c59a2163edc843887d90ac338436ff40e5913f3ec6c6578706572696d656e74616cf564736f6c63430005100040",
  "source": "pragma solidity >=0.5.0;\r\npragma experimental ABIEncoderV2;\r\n/*        \r\n*        \r\n*        Implementação de contrato simples:\r\n*        Para funcionamento deve-se primeiro setar o contrato na \r\n*        blockchain e depois para realizar a compra, seguir as regras \r\n*        e pronto, ele mudará de dono e valor, se o valor da compra\r\n*        for maior que o inicial\r\n*\r\n*\r\n*/\r\ncontract StockMarket {\r\n    \r\n    struct Ativo {\r\n        uint id;\r\n        uint valor;\r\n        address payable dono;\r\n        bool vendivel;\r\n        string name;\r\n    }\r\n    \r\n    uint public ativosCount = 0;\r\n    \r\n    mapping (uint => Ativo) public ativos;\r\n    \r\n   constructor() public{\r\n       createAtivo(\"ITSA\", 20);\r\n       createAtivo(\"ITSA2\", 20);\r\n       createAtivo(\"ITSA3\", 20);\r\n   }\r\n    \r\n    function createAtivo(string memory _nomeAtivo, uint _valor) public{\r\n        ativosCount++;\r\n        \r\n        ativos[ativosCount] = Ativo(ativosCount, _valor, msg.sender, true, _nomeAtivo);\r\n    }\r\n    \r\n    \r\n    function getAtivosByAccount() public view returns(Ativo[] memory) {\r\n        address payable owner = msg.sender;\r\n        \r\n        uint ownerAtivosCount = 0; \r\n        \r\n        // Verifica quantas ações a conta possui\r\n        for(uint i = 0; i <= ativosCount; i++){\r\n            if(ativos[i].dono == owner){\r\n                ownerAtivosCount++;\r\n            }\r\n        }\r\n        \r\n        Ativo[] memory ownerAtivos = new Ativo[](ownerAtivosCount);\r\n        uint j = 0;\r\n        \r\n        for(uint i = 0; i <= ativosCount; i++){\r\n            if(ativos[i].dono == owner){\r\n                ownerAtivos[j] = ativos[i];\r\n                j++;\r\n            }\r\n        }\r\n        \r\n        return ownerAtivos;\r\n    }\r\n    \r\n    \r\n    function comprar(uint ativoIndex) public payable {\r\n        Ativo memory _ativo = ativos[ativoIndex];\r\n        \r\n        address payable _ativoOwner = _ativo.dono;\r\n        \r\n        require (_ativo.vendivel == true, \"O ativo nao pode ser vendido ou nao possue nome valido.\");\r\n        require (msg.value >= _ativo.valor, \"O valor precisa ser maior que o preco do ativo.\");\r\n        \r\n       _ativo.dono = msg.sender;\r\n       _ativo.vendivel = false;\r\n       \r\n       ativos[ativoIndex] = _ativo;\r\n       _ativoOwner.transfer(msg.value);\r\n    }\r\n\r\n}",
  "sourcePath": "D:/Projetos Faculdade/Blockchain/IF-investimentos/contracts/StockMarket.sol",
  "compiler": {
    "name": "solc",
    "version": "0.5.16+commit.9c3226ce.Emscripten.clang"
  },
  "schemaVersion": "3.3.3",
  "updatedAt": "2021-03-03T19:12:59.758Z",
  "networkType": "ethereum",
  "devdoc": {
    "methods": {}
  },
  "userdoc": {
    "methods": {}
  }
}